{
  "_format": "hh-sol-artifact-1",
  "contractName": "DynamicSvgNft",
  "sourceName": "contracts/DynamicSvgNft.sol",
  "abi": [
    {
      "inputs": [
        {
          "internalType": "address",
          "name": "priceFeedAddress",
          "type": "address"
        },
        {
          "internalType": "string",
          "name": "lowSvg",
          "type": "string"
        },
        {
          "internalType": "string",
          "name": "highSvg",
          "type": "string"
        }
      ],
      "stateMutability": "nonpayable",
      "type": "constructor"
    },
    {
      "anonymous": false,
      "inputs": [
        {
          "indexed": true,
          "internalType": "address",
          "name": "owner",
          "type": "address"
        },
        {
          "indexed": true,
          "internalType": "address",
          "name": "approved",
          "type": "address"
        },
        {
          "indexed": true,
          "internalType": "uint256",
          "name": "tokenId",
          "type": "uint256"
        }
      ],
      "name": "Approval",
      "type": "event"
    },
    {
      "anonymous": false,
      "inputs": [
        {
          "indexed": true,
          "internalType": "address",
          "name": "owner",
          "type": "address"
        },
        {
          "indexed": true,
          "internalType": "address",
          "name": "operator",
          "type": "address"
        },
        {
          "indexed": false,
          "internalType": "bool",
          "name": "approved",
          "type": "bool"
        }
      ],
      "name": "ApprovalForAll",
      "type": "event"
    },
    {
      "anonymous": false,
      "inputs": [
        {
          "indexed": true,
          "internalType": "uint256",
          "name": "tokenId",
          "type": "uint256"
        },
        {
          "indexed": false,
          "internalType": "int256",
          "name": "highValue",
          "type": "int256"
        }
      ],
      "name": "CreatedNFT",
      "type": "event"
    },
    {
      "anonymous": false,
      "inputs": [
        {
          "indexed": true,
          "internalType": "address",
          "name": "from",
          "type": "address"
        },
        {
          "indexed": true,
          "internalType": "address",
          "name": "to",
          "type": "address"
        },
        {
          "indexed": true,
          "internalType": "uint256",
          "name": "tokenId",
          "type": "uint256"
        }
      ],
      "name": "Transfer",
      "type": "event"
    },
    {
      "inputs": [
        {
          "internalType": "address",
          "name": "to",
          "type": "address"
        },
        {
          "internalType": "uint256",
          "name": "tokenId",
          "type": "uint256"
        }
      ],
      "name": "approve",
      "outputs": [],
      "stateMutability": "nonpayable",
      "type": "function"
    },
    {
      "inputs": [
        {
          "internalType": "address",
          "name": "owner",
          "type": "address"
        }
      ],
      "name": "balanceOf",
      "outputs": [
        {
          "internalType": "uint256",
          "name": "",
          "type": "uint256"
        }
      ],
      "stateMutability": "view",
      "type": "function"
    },
    {
      "inputs": [
        {
          "internalType": "uint256",
          "name": "tokenId",
          "type": "uint256"
        }
      ],
      "name": "getApproved",
      "outputs": [
        {
          "internalType": "address",
          "name": "",
          "type": "address"
        }
      ],
      "stateMutability": "view",
      "type": "function"
    },
    {
      "inputs": [
        {
          "internalType": "address",
          "name": "owner",
          "type": "address"
        },
        {
          "internalType": "address",
          "name": "operator",
          "type": "address"
        }
      ],
      "name": "isApprovedForAll",
      "outputs": [
        {
          "internalType": "bool",
          "name": "",
          "type": "bool"
        }
      ],
      "stateMutability": "view",
      "type": "function"
    },
    {
      "inputs": [
        {
          "internalType": "int256",
          "name": "highValue",
          "type": "int256"
        }
      ],
      "name": "mintNft",
      "outputs": [],
      "stateMutability": "nonpayable",
      "type": "function"
    },
    {
      "inputs": [],
      "name": "name",
      "outputs": [
        {
          "internalType": "string",
          "name": "",
          "type": "string"
        }
      ],
      "stateMutability": "view",
      "type": "function"
    },
    {
      "inputs": [
        {
          "internalType": "uint256",
          "name": "tokenId",
          "type": "uint256"
        }
      ],
      "name": "ownerOf",
      "outputs": [
        {
          "internalType": "address",
          "name": "",
          "type": "address"
        }
      ],
      "stateMutability": "view",
      "type": "function"
    },
    {
      "inputs": [
        {
          "internalType": "uint256",
          "name": "",
          "type": "uint256"
        }
      ],
      "name": "s_tokenIdtoHighValue",
      "outputs": [
        {
          "internalType": "int256",
          "name": "",
          "type": "int256"
        }
      ],
      "stateMutability": "view",
      "type": "function"
    },
    {
      "inputs": [
        {
          "internalType": "address",
          "name": "from",
          "type": "address"
        },
        {
          "internalType": "address",
          "name": "to",
          "type": "address"
        },
        {
          "internalType": "uint256",
          "name": "tokenId",
          "type": "uint256"
        }
      ],
      "name": "safeTransferFrom",
      "outputs": [],
      "stateMutability": "nonpayable",
      "type": "function"
    },
    {
      "inputs": [
        {
          "internalType": "address",
          "name": "from",
          "type": "address"
        },
        {
          "internalType": "address",
          "name": "to",
          "type": "address"
        },
        {
          "internalType": "uint256",
          "name": "tokenId",
          "type": "uint256"
        },
        {
          "internalType": "bytes",
          "name": "data",
          "type": "bytes"
        }
      ],
      "name": "safeTransferFrom",
      "outputs": [],
      "stateMutability": "nonpayable",
      "type": "function"
    },
    {
      "inputs": [
        {
          "internalType": "address",
          "name": "operator",
          "type": "address"
        },
        {
          "internalType": "bool",
          "name": "approved",
          "type": "bool"
        }
      ],
      "name": "setApprovalForAll",
      "outputs": [],
      "stateMutability": "nonpayable",
      "type": "function"
    },
    {
      "inputs": [
        {
          "internalType": "bytes4",
          "name": "interfaceId",
          "type": "bytes4"
        }
      ],
      "name": "supportsInterface",
      "outputs": [
        {
          "internalType": "bool",
          "name": "",
          "type": "bool"
        }
      ],
      "stateMutability": "view",
      "type": "function"
    },
    {
      "inputs": [
        {
          "internalType": "string",
          "name": "svg",
          "type": "string"
        }
      ],
      "name": "svgToImageURI",
      "outputs": [
        {
          "internalType": "string",
          "name": "",
          "type": "string"
        }
      ],
      "stateMutability": "pure",
      "type": "function"
    },
    {
      "inputs": [],
      "name": "symbol",
      "outputs": [
        {
          "internalType": "string",
          "name": "",
          "type": "string"
        }
      ],
      "stateMutability": "view",
      "type": "function"
    },
    {
      "inputs": [
        {
          "internalType": "uint256",
          "name": "tokenId",
          "type": "uint256"
        }
      ],
      "name": "tokenURI",
      "outputs": [
        {
          "internalType": "string",
          "name": "",
          "type": "string"
        }
      ],
      "stateMutability": "view",
      "type": "function"
    },
    {
      "inputs": [
        {
          "internalType": "address",
          "name": "from",
          "type": "address"
        },
        {
          "internalType": "address",
          "name": "to",
          "type": "address"
        },
        {
          "internalType": "uint256",
          "name": "tokenId",
          "type": "uint256"
        }
      ],
      "name": "transferFrom",
      "outputs": [],
      "stateMutability": "nonpayable",
      "type": "function"
    }
  ],
  "bytecode": "0x60a06040523480156200001157600080fd5b50604051620037bb380380620037bb83398181016040528101906200003791906200064c565b6040518060400160405280600f81526020017f44796e616d696320535647204e465400000000000000000000000000000000008152506040518060400160405280600381526020017f44534e00000000000000000000000000000000000000000000000000000000008152508160009080519060200190620000bb9291906200039a565b508060019080519060200190620000d49291906200039a565b5050506000600681905550620000f0826200016e60201b60201c565b60079080519060200190620001079291906200039a565b5062000119816200016e60201b60201c565b60089080519060200190620001309291906200039a565b508273ffffffffffffffffffffffffffffffffffffffff1660808173ffffffffffffffffffffffffffffffffffffffff168152505050505062000937565b60606000620001a98360405160200162000189919062000733565b6040516020818303038152906040526200020c60201b62000d5d1760201c565b90506040518060400160405280601a81526020017f646174613a696d6167652f7376672b786d6c3b6261736536342c00000000000081525081604051602001620001f59291906200074c565b604051602081830303815290604052915050919050565b6060600082511415620002315760405180602001604052806000815250905062000395565b60006040518060600160405280604081526020016200377b6040913990506000600360028551620002639190620007ad565b6200026f919062000839565b60046200027d919062000871565b90506000602082620002909190620007ad565b67ffffffffffffffff811115620002ac57620002ab620004de565b5b6040519080825280601f01601f191660200182016040528015620002df5781602001600182028036833780820191505090505b509050818152600183018586518101602084015b8183101562000350576003830192508251603f8160121c168501518253600182019150603f81600c1c168501518253600182019150603f8160061c168501518253600182019150603f8116850151825360018201915050620002f3565b6003895106600181146200036d57600281146200037e5762000389565b613d3d60f01b600283035262000389565b603d60f81b60018303525b50505050508093505050505b919050565b828054620003a89062000901565b90600052602060002090601f016020900481019282620003cc576000855562000418565b82601f10620003e757805160ff191683800117855562000418565b8280016001018555821562000418579182015b8281111562000417578251825591602001919060010190620003fa565b5b5090506200042791906200042b565b5090565b5b80821115620004465760008160009055506001016200042c565b5090565b6000604051905090565b600080fd5b600080fd5b600073ffffffffffffffffffffffffffffffffffffffff82169050919050565b60006200048b826200045e565b9050919050565b6200049d816200047e565b8114620004a957600080fd5b50565b600081519050620004bd8162000492565b92915050565b600080fd5b600080fd5b6000601f19601f8301169050919050565b7f4e487b7100000000000000000000000000000000000000000000000000000000600052604160045260246000fd5b6200051882620004cd565b810181811067ffffffffffffffff821117156200053a5762000539620004de565b5b80604052505050565b60006200054f6200044a565b90506200055d82826200050d565b919050565b600067ffffffffffffffff82111562000580576200057f620004de565b5b6200058b82620004cd565b9050602081019050919050565b60005b83811015620005b85780820151818401526020810190506200059b565b83811115620005c8576000848401525b50505050565b6000620005e5620005df8462000562565b62000543565b905082815260208101848484011115620006045762000603620004c8565b5b6200061184828562000598565b509392505050565b600082601f830112620006315762000630620004c3565b5b815162000643848260208601620005ce565b91505092915050565b60008060006060848603121562000668576200066762000454565b5b60006200067886828701620004ac565b935050602084015167ffffffffffffffff8111156200069c576200069b62000459565b5b620006aa8682870162000619565b925050604084015167ffffffffffffffff811115620006ce57620006cd62000459565b5b620006dc8682870162000619565b9150509250925092565b600081519050919050565b600081905092915050565b60006200070982620006e6565b620007158185620006f1565b93506200072781856020860162000598565b80840191505092915050565b6000620007418284620006fc565b915081905092915050565b60006200075a8285620006fc565b9150620007688284620006fc565b91508190509392505050565b6000819050919050565b7f4e487b7100000000000000000000000000000000000000000000000000000000600052601160045260246000fd5b6000620007ba8262000774565b9150620007c78362000774565b9250827fffffffffffffffffffffffffffffffffffffffffffffffffffffffffffffffff03821115620007ff57620007fe6200077e565b5b828201905092915050565b7f4e487b7100000000000000000000000000000000000000000000000000000000600052601260045260246000fd5b6000620008468262000774565b9150620008538362000774565b9250826200086657620008656200080a565b5b828204905092915050565b60006200087e8262000774565b91506200088b8362000774565b9250817fffffffffffffffffffffffffffffffffffffffffffffffffffffffffffffffff0483118215151615620008c757620008c66200077e565b5b828202905092915050565b7f4e487b7100000000000000000000000000000000000000000000000000000000600052602260045260246000fd5b600060028204905060018216806200091a57607f821691505b60208210811415620009315762000930620008d2565b5b50919050565b608051612e28620009536000396000610a9d0152612e286000f3fe608060405234801561001057600080fd5b50600436106101005760003560e01c80636352211e11610097578063a22cb46511610066578063a22cb465146102d1578063b88d4fde146102ed578063c87b56dd14610309578063e985e9c51461033957610100565b80636352211e14610223578063639f60ce1461025357806370a082311461028357806395d89b41146102b357610100565b80631e930812116100d35780631e9308121461019f57806323b872dd146101bb57806330d871c6146101d757806342842e0e1461020757610100565b806301ffc9a71461010557806306fdde0314610135578063081812fc14610153578063095ea7b314610183575b600080fd5b61011f600480360381019061011a9190611a2e565b610369565b60405161012c9190611a76565b60405180910390f35b61013d61044b565b60405161014a9190611b2a565b60405180910390f35b61016d60048036038101906101689190611b82565b6104dd565b60405161017a9190611bf0565b60405180910390f35b61019d60048036038101906101989190611c37565b610523565b005b6101b960048036038101906101b49190611cad565b61063b565b005b6101d560048036038101906101d09190611cda565b6106b6565b005b6101f160048036038101906101ec9190611e62565b610716565b6040516101fe9190611b2a565b60405180910390f35b610221600480360381019061021c9190611cda565b6107a3565b005b61023d60048036038101906102389190611b82565b6107c3565b60405161024a9190611bf0565b60405180910390f35b61026d60048036038101906102689190611b82565b610875565b60405161027a9190611eba565b60405180910390f35b61029d60048036038101906102989190611ed5565b61088d565b6040516102aa9190611f11565b60405180910390f35b6102bb610945565b6040516102c89190611b2a565b60405180910390f35b6102eb60048036038101906102e69190611f58565b6109d7565b005b61030760048036038101906103029190612039565b6109ed565b005b610323600480360381019061031e9190611b82565b610a4f565b6040516103309190611b2a565b60405180910390f35b610353600480360381019061034e91906120bc565b610cc9565b6040516103609190611a76565b60405180910390f35b60007f80ac58cd000000000000000000000000000000000000000000000000000000007bffffffffffffffffffffffffffffffffffffffffffffffffffffffff1916827bffffffffffffffffffffffffffffffffffffffffffffffffffffffff1916148061043457507f5b5e139f000000000000000000000000000000000000000000000000000000007bffffffffffffffffffffffffffffffffffffffffffffffffffffffff1916827bffffffffffffffffffffffffffffffffffffffffffffffffffffffff1916145b80610444575061044382610ed6565b5b9050919050565b60606000805461045a9061212b565b80601f01602080910402602001604051908101604052809291908181526020018280546104869061212b565b80156104d35780601f106104a8576101008083540402835291602001916104d3565b820191906000526020600020905b8154815290600101906020018083116104b657829003601f168201915b5050505050905090565b60006104e882610f40565b6004600083815260200190815260200160002060009054906101000a900473ffffffffffffffffffffffffffffffffffffffff169050919050565b600061052e826107c3565b90508073ffffffffffffffffffffffffffffffffffffffff168373ffffffffffffffffffffffffffffffffffffffff16141561059f576040517f08c379a0000000000000000000000000000000000000000000000000000000008152600401610596906121cf565b60405180910390fd5b8073ffffffffffffffffffffffffffffffffffffffff166105be610f8b565b73ffffffffffffffffffffffffffffffffffffffff1614806105ed57506105ec816105e7610f8b565b610cc9565b5b61062c576040517f08c379a000000000000000000000000000000000000000000000000000000000815260040161062390612261565b60405180910390fd5b6106368383610f93565b505050565b80600960006006548152602001908152602001600020819055506106613360065461104c565b60066000815480929190610674906122b0565b91905055506006547f882d3b5a729a8bb95cf6c0083c99b42ecd9637123d4425bd7b768877fd8af8b0826040516106ab9190611eba565b60405180910390a250565b6106c76106c1610f8b565b8261106a565b610706576040517f08c379a00000000000000000000000000000000000000000000000000000000081526004016106fd9061236b565b60405180910390fd5b6107118383836110ff565b505050565b606060006107428360405160200161072e91906123c7565b604051602081830303815290604052610d5d565b90506040518060400160405280601a81526020017f646174613a696d6167652f7376672b786d6c3b6261736536342c0000000000008152508160405160200161078c9291906123de565b604051602081830303815290604052915050919050565b6107be838383604051806020016040528060008152506109ed565b505050565b6000806002600084815260200190815260200160002060009054906101000a900473ffffffffffffffffffffffffffffffffffffffff169050600073ffffffffffffffffffffffffffffffffffffffff168173ffffffffffffffffffffffffffffffffffffffff16141561086c576040517f08c379a00000000000000000000000000000000000000000000000000000000081526004016108639061244e565b60405180910390fd5b80915050919050565b60096020528060005260406000206000915090505481565b60008073ffffffffffffffffffffffffffffffffffffffff168273ffffffffffffffffffffffffffffffffffffffff1614156108fe576040517f08c379a00000000000000000000000000000000000000000000000000000000081526004016108f5906124e0565b60405180910390fd5b600360008373ffffffffffffffffffffffffffffffffffffffff1673ffffffffffffffffffffffffffffffffffffffff168152602001908152602001600020549050919050565b6060600180546109549061212b565b80601f01602080910402602001604051908101604052809291908181526020018280546109809061212b565b80156109cd5780601f106109a2576101008083540402835291602001916109cd565b820191906000526020600020905b8154815290600101906020018083116109b057829003601f168201915b5050505050905090565b6109e96109e2610f8b565b8383611366565b5050565b6109fe6109f8610f8b565b8361106a565b610a3d576040517f08c379a0000000000000000000000000000000000000000000000000000000008152600401610a349061236b565b60405180910390fd5b610a49848484846114d3565b50505050565b6060610a5a8261152f565b610a99576040517f08c379a0000000000000000000000000000000000000000000000000000000008152600401610a9090612572565b60405180910390fd5b60007f000000000000000000000000000000000000000000000000000000000000000073ffffffffffffffffffffffffffffffffffffffff1663feaf968c6040518163ffffffff1660e01b815260040160a060405180830381865afa158015610b06573d6000803e3d6000fd5b505050506040513d601f19601f82011682018060405250810190610b2a91906125fe565b505050915050600060078054610b3f9061212b565b80601f0160208091040260200160405190810160405280929190818152602001828054610b6b9061212b565b8015610bb85780601f10610b8d57610100808354040283529160200191610bb8565b820191906000526020600020905b815481529060010190602001808311610b9b57829003601f168201915b5050505050905060096000858152602001908152602001600020548212610c675760088054610be69061212b565b80601f0160208091040260200160405190810160405280929190818152602001828054610c129061212b565b8015610c5f5780601f10610c3457610100808354040283529160200191610c5f565b820191906000526020600020905b815481529060010190602001808311610c4257829003601f168201915b505050505090505b610c6f61159b565b610ca0610c7a61044b565b83604051602001610c8c929190612841565b604051602081830303815290604052610d5d565b604051602001610cb19291906123de565b60405160208183030381529060405292505050919050565b6000600560008473ffffffffffffffffffffffffffffffffffffffff1673ffffffffffffffffffffffffffffffffffffffff16815260200190815260200160002060008373ffffffffffffffffffffffffffffffffffffffff1673ffffffffffffffffffffffffffffffffffffffff16815260200190815260200160002060009054906101000a900460ff16905092915050565b6060600082511415610d8057604051806020016040528060008152509050610ed1565b6000604051806060016040528060408152602001612db36040913990506000600360028551610daf9190612891565b610db99190612916565b6004610dc59190612947565b90506000602082610dd69190612891565b67ffffffffffffffff811115610def57610dee611d37565b5b6040519080825280601f01601f191660200182016040528015610e215781602001600182028036833780820191505090505b509050818152600183018586518101602084015b81831015610e90576003830192508251603f8160121c168501518253600182019150603f81600c1c168501518253600182019150603f8160061c168501518253600182019150603f8116850151825360018201915050610e35565b600389510660018114610eaa5760028114610eba57610ec5565b613d3d60f01b6002830352610ec5565b603d60f81b60018303525b50505050508093505050505b919050565b60007f01ffc9a7000000000000000000000000000000000000000000000000000000007bffffffffffffffffffffffffffffffffffffffffffffffffffffffff1916827bffffffffffffffffffffffffffffffffffffffffffffffffffffffff1916149050919050565b610f498161152f565b610f88576040517f08c379a0000000000000000000000000000000000000000000000000000000008152600401610f7f9061244e565b60405180910390fd5b50565b600033905090565b816004600083815260200190815260200160002060006101000a81548173ffffffffffffffffffffffffffffffffffffffff021916908373ffffffffffffffffffffffffffffffffffffffff160217905550808273ffffffffffffffffffffffffffffffffffffffff16611006836107c3565b73ffffffffffffffffffffffffffffffffffffffff167f8c5be1e5ebec7d5bd14f71427d1e84f3dd0314c0f7b2291e5b200ac8c7c3b92560405160405180910390a45050565b6110668282604051806020016040528060008152506115d8565b5050565b600080611076836107c3565b90508073ffffffffffffffffffffffffffffffffffffffff168473ffffffffffffffffffffffffffffffffffffffff1614806110b857506110b78185610cc9565b5b806110f657508373ffffffffffffffffffffffffffffffffffffffff166110de846104dd565b73ffffffffffffffffffffffffffffffffffffffff16145b91505092915050565b8273ffffffffffffffffffffffffffffffffffffffff1661111f826107c3565b73ffffffffffffffffffffffffffffffffffffffff1614611175576040517f08c379a000000000000000000000000000000000000000000000000000000000815260040161116c90612a13565b60405180910390fd5b600073ffffffffffffffffffffffffffffffffffffffff168273ffffffffffffffffffffffffffffffffffffffff1614156111e5576040517f08c379a00000000000000000000000000000000000000000000000000000000081526004016111dc90612aa5565b60405180910390fd5b6111f0838383611633565b6111fb600082610f93565b6001600360008573ffffffffffffffffffffffffffffffffffffffff1673ffffffffffffffffffffffffffffffffffffffff168152602001908152602001600020600082825461124b9190612ac5565b925050819055506001600360008473ffffffffffffffffffffffffffffffffffffffff1673ffffffffffffffffffffffffffffffffffffffff16815260200190815260200160002060008282546112a29190612891565b92505081905550816002600083815260200190815260200160002060006101000a81548173ffffffffffffffffffffffffffffffffffffffff021916908373ffffffffffffffffffffffffffffffffffffffff160217905550808273ffffffffffffffffffffffffffffffffffffffff168473ffffffffffffffffffffffffffffffffffffffff167fddf252ad1be2c89b69c2b068fc378daa952ba7f163c4a11628f55a4df523b3ef60405160405180910390a4611361838383611638565b505050565b8173ffffffffffffffffffffffffffffffffffffffff168373ffffffffffffffffffffffffffffffffffffffff1614156113d5576040517f08c379a00000000000000000000000000000000000000000000000000000000081526004016113cc90612b45565b60405180910390fd5b80600560008573ffffffffffffffffffffffffffffffffffffffff1673ffffffffffffffffffffffffffffffffffffffff16815260200190815260200160002060008473ffffffffffffffffffffffffffffffffffffffff1673ffffffffffffffffffffffffffffffffffffffff16815260200190815260200160002060006101000a81548160ff0219169083151502179055508173ffffffffffffffffffffffffffffffffffffffff168373ffffffffffffffffffffffffffffffffffffffff167f17307eab39ab6107e8899845ad3d59bd9653f200f220920489ca2b5937696c31836040516114c69190611a76565b60405180910390a3505050565b6114de8484846110ff565b6114ea8484848461163d565b611529576040517f08c379a000000000000000000000000000000000000000000000000000000000815260040161152090612bd7565b60405180910390fd5b50505050565b60008073ffffffffffffffffffffffffffffffffffffffff166002600084815260200190815260200160002060009054906101000a900473ffffffffffffffffffffffffffffffffffffffff1673ffffffffffffffffffffffffffffffffffffffff1614159050919050565b60606040518060400160405280601d81526020017f646174613a6170706c69636174696f6e2f6a736f6e3b6261736536342c000000815250905090565b6115e283836117c5565b6115ef600084848461163d565b61162e576040517f08c379a000000000000000000000000000000000000000000000000000000000815260040161162590612bd7565b60405180910390fd5b505050565b505050565b505050565b600061165e8473ffffffffffffffffffffffffffffffffffffffff1661199f565b156117b8578373ffffffffffffffffffffffffffffffffffffffff1663150b7a02611687610f8b565b8786866040518563ffffffff1660e01b81526004016116a99493929190612c4c565b6020604051808303816000875af19250505080156116e557506040513d601f19601f820116820180604052508101906116e29190612cad565b60015b611768573d8060008114611715576040519150601f19603f3d011682016040523d82523d6000602084013e61171a565b606091505b50600081511415611760576040517f08c379a000000000000000000000000000000000000000000000000000000000815260040161175790612bd7565b60405180910390fd5b805181602001fd5b63150b7a0260e01b7bffffffffffffffffffffffffffffffffffffffffffffffffffffffff1916817bffffffffffffffffffffffffffffffffffffffffffffffffffffffff1916149150506117bd565b600190505b949350505050565b600073ffffffffffffffffffffffffffffffffffffffff168273ffffffffffffffffffffffffffffffffffffffff161415611835576040517f08c379a000000000000000000000000000000000000000000000000000000000815260040161182c90612d26565b60405180910390fd5b61183e8161152f565b1561187e576040517f08c379a000000000000000000000000000000000000000000000000000000000815260040161187590612d92565b60405180910390fd5b61188a60008383611633565b6001600360008473ffffffffffffffffffffffffffffffffffffffff1673ffffffffffffffffffffffffffffffffffffffff16815260200190815260200160002060008282546118da9190612891565b92505081905550816002600083815260200190815260200160002060006101000a81548173ffffffffffffffffffffffffffffffffffffffff021916908373ffffffffffffffffffffffffffffffffffffffff160217905550808273ffffffffffffffffffffffffffffffffffffffff16600073ffffffffffffffffffffffffffffffffffffffff167fddf252ad1be2c89b69c2b068fc378daa952ba7f163c4a11628f55a4df523b3ef60405160405180910390a461199b60008383611638565b5050565b6000808273ffffffffffffffffffffffffffffffffffffffff163b119050919050565b6000604051905090565b600080fd5b600080fd5b60007fffffffff0000000000000000000000000000000000000000000000000000000082169050919050565b611a0b816119d6565b8114611a1657600080fd5b50565b600081359050611a2881611a02565b92915050565b600060208284031215611a4457611a436119cc565b5b6000611a5284828501611a19565b91505092915050565b60008115159050919050565b611a7081611a5b565b82525050565b6000602082019050611a8b6000830184611a67565b92915050565b600081519050919050565b600082825260208201905092915050565b60005b83811015611acb578082015181840152602081019050611ab0565b83811115611ada576000848401525b50505050565b6000601f19601f8301169050919050565b6000611afc82611a91565b611b068185611a9c565b9350611b16818560208601611aad565b611b1f81611ae0565b840191505092915050565b60006020820190508181036000830152611b448184611af1565b905092915050565b6000819050919050565b611b5f81611b4c565b8114611b6a57600080fd5b50565b600081359050611b7c81611b56565b92915050565b600060208284031215611b9857611b976119cc565b5b6000611ba684828501611b6d565b91505092915050565b600073ffffffffffffffffffffffffffffffffffffffff82169050919050565b6000611bda82611baf565b9050919050565b611bea81611bcf565b82525050565b6000602082019050611c056000830184611be1565b92915050565b611c1481611bcf565b8114611c1f57600080fd5b50565b600081359050611c3181611c0b565b92915050565b60008060408385031215611c4e57611c4d6119cc565b5b6000611c5c85828601611c22565b9250506020611c6d85828601611b6d565b9150509250929050565b6000819050919050565b611c8a81611c77565b8114611c9557600080fd5b50565b600081359050611ca781611c81565b92915050565b600060208284031215611cc357611cc26119cc565b5b6000611cd184828501611c98565b91505092915050565b600080600060608486031215611cf357611cf26119cc565b5b6000611d0186828701611c22565b9350506020611d1286828701611c22565b9250506040611d2386828701611b6d565b9150509250925092565b600080fd5b600080fd5b7f4e487b7100000000000000000000000000000000000000000000000000000000600052604160045260246000fd5b611d6f82611ae0565b810181811067ffffffffffffffff82111715611d8e57611d8d611d37565b5b80604052505050565b6000611da16119c2565b9050611dad8282611d66565b919050565b600067ffffffffffffffff821115611dcd57611dcc611d37565b5b611dd682611ae0565b9050602081019050919050565b82818337600083830152505050565b6000611e05611e0084611db2565b611d97565b905082815260208101848484011115611e2157611e20611d32565b5b611e2c848285611de3565b509392505050565b600082601f830112611e4957611e48611d2d565b5b8135611e59848260208601611df2565b91505092915050565b600060208284031215611e7857611e776119cc565b5b600082013567ffffffffffffffff811115611e9657611e956119d1565b5b611ea284828501611e34565b91505092915050565b611eb481611c77565b82525050565b6000602082019050611ecf6000830184611eab565b92915050565b600060208284031215611eeb57611eea6119cc565b5b6000611ef984828501611c22565b91505092915050565b611f0b81611b4c565b82525050565b6000602082019050611f266000830184611f02565b92915050565b611f3581611a5b565b8114611f4057600080fd5b50565b600081359050611f5281611f2c565b92915050565b60008060408385031215611f6f57611f6e6119cc565b5b6000611f7d85828601611c22565b9250506020611f8e85828601611f43565b9150509250929050565b600067ffffffffffffffff821115611fb357611fb2611d37565b5b611fbc82611ae0565b9050602081019050919050565b6000611fdc611fd784611f98565b611d97565b905082815260208101848484011115611ff857611ff7611d32565b5b612003848285611de3565b509392505050565b600082601f8301126120205761201f611d2d565b5b8135612030848260208601611fc9565b91505092915050565b60008060008060808587031215612053576120526119cc565b5b600061206187828801611c22565b945050602061207287828801611c22565b935050604061208387828801611b6d565b925050606085013567ffffffffffffffff8111156120a4576120a36119d1565b5b6120b08782880161200b565b91505092959194509250565b600080604083850312156120d3576120d26119cc565b5b60006120e185828601611c22565b92505060206120f285828601611c22565b9150509250929050565b7f4e487b7100000000000000000000000000000000000000000000000000000000600052602260045260246000fd5b6000600282049050600182168061214357607f821691505b60208210811415612157576121566120fc565b5b50919050565b7f4552433732313a20617070726f76616c20746f2063757272656e74206f776e6560008201527f7200000000000000000000000000000000000000000000000000000000000000602082015250565b60006121b9602183611a9c565b91506121c48261215d565b604082019050919050565b600060208201905081810360008301526121e8816121ac565b9050919050565b7f4552433732313a20617070726f76652063616c6c6572206973206e6f7420746f60008201527f6b656e206f776e6572206e6f7220617070726f76656420666f7220616c6c0000602082015250565b600061224b603e83611a9c565b9150612256826121ef565b604082019050919050565b6000602082019050818103600083015261227a8161223e565b9050919050565b7f4e487b7100000000000000000000000000000000000000000000000000000000600052601160045260246000fd5b60006122bb82611b4c565b91507fffffffffffffffffffffffffffffffffffffffffffffffffffffffffffffffff8214156122ee576122ed612281565b5b600182019050919050565b7f4552433732313a2063616c6c6572206973206e6f7420746f6b656e206f776e6560008201527f72206e6f7220617070726f766564000000000000000000000000000000000000602082015250565b6000612355602e83611a9c565b9150612360826122f9565b604082019050919050565b6000602082019050818103600083015261238481612348565b9050919050565b600081905092915050565b60006123a182611a91565b6123ab818561238b565b93506123bb818560208601611aad565b80840191505092915050565b60006123d38284612396565b915081905092915050565b60006123ea8285612396565b91506123f68284612396565b91508190509392505050565b7f4552433732313a20696e76616c696420746f6b656e2049440000000000000000600082015250565b6000612438601883611a9c565b915061244382612402565b602082019050919050565b600060208201905081810360008301526124678161242b565b9050919050565b7f4552433732313a2061646472657373207a65726f206973206e6f74206120766160008201527f6c6964206f776e65720000000000000000000000000000000000000000000000602082015250565b60006124ca602983611a9c565b91506124d58261246e565b604082019050919050565b600060208201905081810360008301526124f9816124bd565b9050919050565b7f55524920717565727920666f72206e6f6e6578697374656e7420746f6b656e2060008201527f7265717565737465642100000000000000000000000000000000000000000000602082015250565b600061255c602a83611a9c565b915061256782612500565b604082019050919050565b6000602082019050818103600083015261258b8161254f565b9050919050565b600069ffffffffffffffffffff82169050919050565b6125b181612592565b81146125bc57600080fd5b50565b6000815190506125ce816125a8565b92915050565b6000815190506125e381611c81565b92915050565b6000815190506125f881611b56565b92915050565b600080600080600060a0868803121561261a576126196119cc565b5b6000612628888289016125bf565b9550506020612639888289016125d4565b945050604061264a888289016125e9565b935050606061265b888289016125e9565b925050608061266c888289016125bf565b9150509295509295909350565b7f7b226e616d65223a220000000000000000000000000000000000000000000000600082015250565b60006126af60098361238b565b91506126ba82612679565b600982019050919050565b7f222c2264657363726970746f6e223a2241204e4654207768696368206368616e60008201527f6765732064796e616d6963616c6c79206261736564206f6e207468652073746160208201527f7465206f662074686520626c6f636b636861696e2e222c000000000000000000604082015250565b600061274760578361238b565b9150612752826126c5565b605782019050919050565b7f2261747472696275746573223a5b7b2274726169745f74797065223a2022636f60008201527f6f6c6e657373222c202276616c7565223a203130307d5d2c2022696d6167652260208201527f3a22000000000000000000000000000000000000000000000000000000000000604082015250565b60006127df60428361238b565b91506127ea8261275d565b604282019050919050565b7f227d000000000000000000000000000000000000000000000000000000000000600082015250565b600061282b60028361238b565b9150612836826127f5565b600282019050919050565b600061284c826126a2565b91506128588285612396565b91506128638261273a565b915061286e826127d2565b915061287a8284612396565b91506128858261281e565b91508190509392505050565b600061289c82611b4c565b91506128a783611b4c565b9250827fffffffffffffffffffffffffffffffffffffffffffffffffffffffffffffffff038211156128dc576128db612281565b5b828201905092915050565b7f4e487b7100000000000000000000000000000000000000000000000000000000600052601260045260246000fd5b600061292182611b4c565b915061292c83611b4c565b92508261293c5761293b6128e7565b5b828204905092915050565b600061295282611b4c565b915061295d83611b4c565b9250817fffffffffffffffffffffffffffffffffffffffffffffffffffffffffffffffff048311821515161561299657612995612281565b5b828202905092915050565b7f4552433732313a207472616e736665722066726f6d20696e636f72726563742060008201527f6f776e6572000000000000000000000000000000000000000000000000000000602082015250565b60006129fd602583611a9c565b9150612a08826129a1565b604082019050919050565b60006020820190508181036000830152612a2c816129f0565b9050919050565b7f4552433732313a207472616e7366657220746f20746865207a65726f2061646460008201527f7265737300000000000000000000000000000000000000000000000000000000602082015250565b6000612a8f602483611a9c565b9150612a9a82612a33565b604082019050919050565b60006020820190508181036000830152612abe81612a82565b9050919050565b6000612ad082611b4c565b9150612adb83611b4c565b925082821015612aee57612aed612281565b5b828203905092915050565b7f4552433732313a20617070726f766520746f2063616c6c657200000000000000600082015250565b6000612b2f601983611a9c565b9150612b3a82612af9565b602082019050919050565b60006020820190508181036000830152612b5e81612b22565b9050919050565b7f4552433732313a207472616e7366657220746f206e6f6e20455243373231526560008201527f63656976657220696d706c656d656e7465720000000000000000000000000000602082015250565b6000612bc1603283611a9c565b9150612bcc82612b65565b604082019050919050565b60006020820190508181036000830152612bf081612bb4565b9050919050565b600081519050919050565b600082825260208201905092915050565b6000612c1e82612bf7565b612c288185612c02565b9350612c38818560208601611aad565b612c4181611ae0565b840191505092915050565b6000608082019050612c616000830187611be1565b612c6e6020830186611be1565b612c7b6040830185611f02565b8181036060830152612c8d8184612c13565b905095945050505050565b600081519050612ca781611a02565b92915050565b600060208284031215612cc357612cc26119cc565b5b6000612cd184828501612c98565b91505092915050565b7f4552433732313a206d696e7420746f20746865207a65726f2061646472657373600082015250565b6000612d10602083611a9c565b9150612d1b82612cda565b602082019050919050565b60006020820190508181036000830152612d3f81612d03565b9050919050565b7f4552433732313a20746f6b656e20616c7265616479206d696e74656400000000600082015250565b6000612d7c601c83611a9c565b9150612d8782612d46565b602082019050919050565b60006020820190508181036000830152612dab81612d6f565b905091905056fe4142434445464748494a4b4c4d4e4f505152535455565758595a6162636465666768696a6b6c6d6e6f707172737475767778797a303132333435363738392b2fa2646970667358221220a2cabd5739fd8bebb7247bbcbf674377a7c4938a0e4039098d769d881abe307a64736f6c634300080c00334142434445464748494a4b4c4d4e4f505152535455565758595a6162636465666768696a6b6c6d6e6f707172737475767778797a303132333435363738392b2f",
  "linkReferences": {},
  "deployedLinkReferences": {}
}