{
  "_format": "hh-sol-artifact-1",
  "contractName": "RandomIpfsNft",
  "sourceName": "contracts/RandomIpfsNft.sol",
  "abi": [
    {
      "inputs": [
        {
          "internalType": "address",
          "name": "vrfCoordinatorV2",
          "type": "address"
        },
        {
          "internalType": "uint64",
          "name": "subscriptionId",
          "type": "uint64"
        },
        {
          "internalType": "bytes32",
          "name": "gasLane",
          "type": "bytes32"
        },
        {
          "internalType": "uint32",
          "name": "callbackGasLimit",
          "type": "uint32"
        },
        {
          "internalType": "string[3]",
          "name": "dogTokenUris",
          "type": "string[3]"
        },
        {
          "internalType": "uint256",
          "name": "mintFee",
          "type": "uint256"
        }
      ],
      "stateMutability": "nonpayable",
      "type": "constructor"
    },
    {
      "inputs": [
        {
          "internalType": "address",
          "name": "have",
          "type": "address"
        },
        {
          "internalType": "address",
          "name": "want",
          "type": "address"
        }
      ],
      "name": "OnlyCoordinatorCanFulfill",
      "type": "error"
    },
    {
      "inputs": [],
      "name": "RandomIpfsNft__RangeOutOfBounds",
      "type": "error"
    },
    {
      "inputs": [],
      "name": "RandomIpfsNft__SendMoreETH",
      "type": "error"
    },
    {
      "inputs": [],
      "name": "RandomIpfsNft__WithdrawFailed",
      "type": "error"
    },
    {
      "anonymous": false,
      "inputs": [
        {
          "indexed": true,
          "internalType": "address",
          "name": "owner",
          "type": "address"
        },
        {
          "indexed": true,
          "internalType": "address",
          "name": "approved",
          "type": "address"
        },
        {
          "indexed": true,
          "internalType": "uint256",
          "name": "tokenId",
          "type": "uint256"
        }
      ],
      "name": "Approval",
      "type": "event"
    },
    {
      "anonymous": false,
      "inputs": [
        {
          "indexed": true,
          "internalType": "address",
          "name": "owner",
          "type": "address"
        },
        {
          "indexed": true,
          "internalType": "address",
          "name": "operator",
          "type": "address"
        },
        {
          "indexed": false,
          "internalType": "bool",
          "name": "approved",
          "type": "bool"
        }
      ],
      "name": "ApprovalForAll",
      "type": "event"
    },
    {
      "anonymous": false,
      "inputs": [
        {
          "indexed": false,
          "internalType": "enum RandomIpfsNft.Breed",
          "name": "dogBreed",
          "type": "uint8"
        },
        {
          "indexed": false,
          "internalType": "address",
          "name": "minter",
          "type": "address"
        }
      ],
      "name": "NftMinted",
      "type": "event"
    },
    {
      "anonymous": false,
      "inputs": [
        {
          "indexed": true,
          "internalType": "uint256",
          "name": "requestId",
          "type": "uint256"
        },
        {
          "indexed": false,
          "internalType": "address",
          "name": "requester",
          "type": "address"
        }
      ],
      "name": "NftRequested",
      "type": "event"
    },
    {
      "anonymous": false,
      "inputs": [
        {
          "indexed": true,
          "internalType": "address",
          "name": "previousOwner",
          "type": "address"
        },
        {
          "indexed": true,
          "internalType": "address",
          "name": "newOwner",
          "type": "address"
        }
      ],
      "name": "OwnershipTransferred",
      "type": "event"
    },
    {
      "anonymous": false,
      "inputs": [
        {
          "indexed": true,
          "internalType": "address",
          "name": "from",
          "type": "address"
        },
        {
          "indexed": true,
          "internalType": "address",
          "name": "to",
          "type": "address"
        },
        {
          "indexed": true,
          "internalType": "uint256",
          "name": "tokenId",
          "type": "uint256"
        }
      ],
      "name": "Transfer",
      "type": "event"
    },
    {
      "inputs": [
        {
          "internalType": "address",
          "name": "to",
          "type": "address"
        },
        {
          "internalType": "uint256",
          "name": "tokenId",
          "type": "uint256"
        }
      ],
      "name": "approve",
      "outputs": [],
      "stateMutability": "nonpayable",
      "type": "function"
    },
    {
      "inputs": [
        {
          "internalType": "address",
          "name": "owner",
          "type": "address"
        }
      ],
      "name": "balanceOf",
      "outputs": [
        {
          "internalType": "uint256",
          "name": "",
          "type": "uint256"
        }
      ],
      "stateMutability": "view",
      "type": "function"
    },
    {
      "inputs": [
        {
          "internalType": "uint256",
          "name": "tokenId",
          "type": "uint256"
        }
      ],
      "name": "getApproved",
      "outputs": [
        {
          "internalType": "address",
          "name": "",
          "type": "address"
        }
      ],
      "stateMutability": "view",
      "type": "function"
    },
    {
      "inputs": [
        {
          "internalType": "uint256",
          "name": "moddedRng",
          "type": "uint256"
        }
      ],
      "name": "getBreedFromModdedRng",
      "outputs": [
        {
          "internalType": "enum RandomIpfsNft.Breed",
          "name": "",
          "type": "uint8"
        }
      ],
      "stateMutability": "pure",
      "type": "function"
    },
    {
      "inputs": [],
      "name": "getChanceArray",
      "outputs": [
        {
          "internalType": "uint256[3]",
          "name": "",
          "type": "uint256[3]"
        }
      ],
      "stateMutability": "pure",
      "type": "function"
    },
    {
      "inputs": [
        {
          "internalType": "uint256",
          "name": "index",
          "type": "uint256"
        }
      ],
      "name": "getDogtokenUris",
      "outputs": [
        {
          "internalType": "string",
          "name": "",
          "type": "string"
        }
      ],
      "stateMutability": "view",
      "type": "function"
    },
    {
      "inputs": [],
      "name": "getMintFee",
      "outputs": [
        {
          "internalType": "uint256",
          "name": "",
          "type": "uint256"
        }
      ],
      "stateMutability": "view",
      "type": "function"
    },
    {
      "inputs": [],
      "name": "getTokenCounter",
      "outputs": [
        {
          "internalType": "uint256",
          "name": "",
          "type": "uint256"
        }
      ],
      "stateMutability": "view",
      "type": "function"
    },
    {
      "inputs": [
        {
          "internalType": "address",
          "name": "owner",
          "type": "address"
        },
        {
          "internalType": "address",
          "name": "operator",
          "type": "address"
        }
      ],
      "name": "isApprovedForAll",
      "outputs": [
        {
          "internalType": "bool",
          "name": "",
          "type": "bool"
        }
      ],
      "stateMutability": "view",
      "type": "function"
    },
    {
      "inputs": [],
      "name": "name",
      "outputs": [
        {
          "internalType": "string",
          "name": "",
          "type": "string"
        }
      ],
      "stateMutability": "view",
      "type": "function"
    },
    {
      "inputs": [],
      "name": "owner",
      "outputs": [
        {
          "internalType": "address",
          "name": "",
          "type": "address"
        }
      ],
      "stateMutability": "view",
      "type": "function"
    },
    {
      "inputs": [
        {
          "internalType": "uint256",
          "name": "tokenId",
          "type": "uint256"
        }
      ],
      "name": "ownerOf",
      "outputs": [
        {
          "internalType": "address",
          "name": "",
          "type": "address"
        }
      ],
      "stateMutability": "view",
      "type": "function"
    },
    {
      "inputs": [
        {
          "internalType": "uint256",
          "name": "requestId",
          "type": "uint256"
        },
        {
          "internalType": "uint256[]",
          "name": "randomWords",
          "type": "uint256[]"
        }
      ],
      "name": "rawFulfillRandomWords",
      "outputs": [],
      "stateMutability": "nonpayable",
      "type": "function"
    },
    {
      "inputs": [],
      "name": "renounceOwnership",
      "outputs": [],
      "stateMutability": "nonpayable",
      "type": "function"
    },
    {
      "inputs": [],
      "name": "requestNft",
      "outputs": [
        {
          "internalType": "uint256",
          "name": "requestId",
          "type": "uint256"
        }
      ],
      "stateMutability": "payable",
      "type": "function"
    },
    {
      "inputs": [
        {
          "internalType": "uint256",
          "name": "",
          "type": "uint256"
        }
      ],
      "name": "s_requestIdToSender",
      "outputs": [
        {
          "internalType": "address",
          "name": "",
          "type": "address"
        }
      ],
      "stateMutability": "view",
      "type": "function"
    },
    {
      "inputs": [],
      "name": "s_tokenCounter",
      "outputs": [
        {
          "internalType": "uint256",
          "name": "",
          "type": "uint256"
        }
      ],
      "stateMutability": "view",
      "type": "function"
    },
    {
      "inputs": [
        {
          "internalType": "address",
          "name": "from",
          "type": "address"
        },
        {
          "internalType": "address",
          "name": "to",
          "type": "address"
        },
        {
          "internalType": "uint256",
          "name": "tokenId",
          "type": "uint256"
        }
      ],
      "name": "safeTransferFrom",
      "outputs": [],
      "stateMutability": "nonpayable",
      "type": "function"
    },
    {
      "inputs": [
        {
          "internalType": "address",
          "name": "from",
          "type": "address"
        },
        {
          "internalType": "address",
          "name": "to",
          "type": "address"
        },
        {
          "internalType": "uint256",
          "name": "tokenId",
          "type": "uint256"
        },
        {
          "internalType": "bytes",
          "name": "data",
          "type": "bytes"
        }
      ],
      "name": "safeTransferFrom",
      "outputs": [],
      "stateMutability": "nonpayable",
      "type": "function"
    },
    {
      "inputs": [
        {
          "internalType": "address",
          "name": "operator",
          "type": "address"
        },
        {
          "internalType": "bool",
          "name": "approved",
          "type": "bool"
        }
      ],
      "name": "setApprovalForAll",
      "outputs": [],
      "stateMutability": "nonpayable",
      "type": "function"
    },
    {
      "inputs": [
        {
          "internalType": "bytes4",
          "name": "interfaceId",
          "type": "bytes4"
        }
      ],
      "name": "supportsInterface",
      "outputs": [
        {
          "internalType": "bool",
          "name": "",
          "type": "bool"
        }
      ],
      "stateMutability": "view",
      "type": "function"
    },
    {
      "inputs": [],
      "name": "symbol",
      "outputs": [
        {
          "internalType": "string",
          "name": "",
          "type": "string"
        }
      ],
      "stateMutability": "view",
      "type": "function"
    },
    {
      "inputs": [
        {
          "internalType": "uint256",
          "name": "tokenId",
          "type": "uint256"
        }
      ],
      "name": "tokenURI",
      "outputs": [
        {
          "internalType": "string",
          "name": "",
          "type": "string"
        }
      ],
      "stateMutability": "view",
      "type": "function"
    },
    {
      "inputs": [
        {
          "internalType": "address",
          "name": "from",
          "type": "address"
        },
        {
          "internalType": "address",
          "name": "to",
          "type": "address"
        },
        {
          "internalType": "uint256",
          "name": "tokenId",
          "type": "uint256"
        }
      ],
      "name": "transferFrom",
      "outputs": [],
      "stateMutability": "nonpayable",
      "type": "function"
    },
    {
      "inputs": [
        {
          "internalType": "address",
          "name": "newOwner",
          "type": "address"
        }
      ],
      "name": "transferOwnership",
      "outputs": [],
      "stateMutability": "nonpayable",
      "type": "function"
    },
    {
      "inputs": [],
      "name": "withdraw",
      "outputs": [],
      "stateMutability": "nonpayable",
      "type": "function"
    }
  ],
  "bytecode": "0x6101406040523480156200001257600080fd5b50604051620042c4380380620042c48339818101604052810190620000389190620007f2565b6040518060400160405280600b81526020017f4e2d576f726420506173730000000000000000000000000000000000000000008152506040518060400160405280600581526020017f4e50415353000000000000000000000000000000000000000000000000000000815250878073ffffffffffffffffffffffffffffffffffffffff1660808173ffffffffffffffffffffffffffffffffffffffff1681525050508160009080519060200190620000f292919062000292565b5080600190805190602001906200010b92919062000292565b5050506200012e62000122620001c460201b60201c565b620001cc60201b60201c565b8573ffffffffffffffffffffffffffffffffffffffff1660a08173ffffffffffffffffffffffffffffffffffffffff16815250508467ffffffffffffffff1660c08167ffffffffffffffff16815250508360e081815250508263ffffffff166101008163ffffffff168152505081600a906003620001ae92919062000323565b5080610120818152505050505050505062000912565b600033905090565b6000600760009054906101000a900473ffffffffffffffffffffffffffffffffffffffff16905081600760006101000a81548173ffffffffffffffffffffffffffffffffffffffff021916908373ffffffffffffffffffffffffffffffffffffffff1602179055508173ffffffffffffffffffffffffffffffffffffffff168173ffffffffffffffffffffffffffffffffffffffff167f8be0079c531659141344cd1fd0a4f28419497f9722a3daafe3b4186f6b6457e060405160405180910390a35050565b828054620002a090620008dc565b90600052602060002090601f016020900481019282620002c4576000855562000310565b82601f10620002df57805160ff191683800117855562000310565b8280016001018555821562000310579182015b828111156200030f578251825591602001919060010190620002f2565b5b5090506200031f91906200037d565b5090565b82600381019282156200036a579160200282015b82811115620003695782518290805190602001906200035892919062000292565b509160200191906001019062000337565b5b5090506200037991906200039c565b5090565b5b80821115620003985760008160009055506001016200037e565b5090565b5b80821115620003c05760008181620003b69190620003c4565b506001016200039d565b5090565b508054620003d290620008dc565b6000825580601f10620003e6575062000407565b601f0160209004906000526020600020908101906200040691906200037d565b5b50565b6000604051905090565b600080fd5b600080fd5b600073ffffffffffffffffffffffffffffffffffffffff82169050919050565b60006200044b826200041e565b9050919050565b6200045d816200043e565b81146200046957600080fd5b50565b6000815190506200047d8162000452565b92915050565b600067ffffffffffffffff82169050919050565b620004a28162000483565b8114620004ae57600080fd5b50565b600081519050620004c28162000497565b92915050565b6000819050919050565b620004dd81620004c8565b8114620004e957600080fd5b50565b600081519050620004fd81620004d2565b92915050565b600063ffffffff82169050919050565b6200051e8162000503565b81146200052a57600080fd5b50565b6000815190506200053e8162000513565b92915050565b600080fd5b6000601f19601f8301169050919050565b7f4e487b7100000000000000000000000000000000000000000000000000000000600052604160045260246000fd5b620005948262000549565b810181811067ffffffffffffffff82111715620005b657620005b56200055a565b5b80604052505050565b6000620005cb6200040a565b9050620005d9828262000589565b919050565b600067ffffffffffffffff821115620005fc57620005fb6200055a565b5b602082029050919050565b600080fd5b600080fd5b600067ffffffffffffffff8211156200062f576200062e6200055a565b5b6200063a8262000549565b9050602081019050919050565b60005b83811015620006675780820151818401526020810190506200064a565b8381111562000677576000848401525b50505050565b6000620006946200068e8462000611565b620005bf565b905082815260208101848484011115620006b357620006b26200060c565b5b620006c084828562000647565b509392505050565b600082601f830112620006e057620006df62000544565b5b8151620006f28482602086016200067d565b91505092915050565b6000620007126200070c84620005de565b620005bf565b905080602084028301858111156200072f576200072e62000607565b5b835b818110156200077d57805167ffffffffffffffff81111562000758576200075762000544565b5b808601620007678982620006c8565b8552602085019450505060208101905062000731565b5050509392505050565b600082601f8301126200079f576200079e62000544565b5b6003620007ae848285620006fb565b91505092915050565b6000819050919050565b620007cc81620007b7565b8114620007d857600080fd5b50565b600081519050620007ec81620007c1565b92915050565b60008060008060008060c0878903121562000812576200081162000414565b5b60006200082289828a016200046c565b96505060206200083589828a01620004b1565b95505060406200084889828a01620004ec565b94505060606200085b89828a016200052d565b935050608087015167ffffffffffffffff8111156200087f576200087e62000419565b5b6200088d89828a0162000787565b92505060a0620008a089828a01620007db565b9150509295509295509295565b7f4e487b7100000000000000000000000000000000000000000000000000000000600052602260045260246000fd5b60006002820490506001821680620008f557607f821691505b602082108114156200090c576200090b620008ad565b5b50919050565b60805160a05160c05160e05161010051610120516139546200097060003960008181610d6d0152610f7c01526000611056015260006110120152600061103301526000610fd601526000818161091d015261097101526139546000f3fe6080604052600436106101815760003560e01c806370a08231116100d1578063a36f573b1161008a578063b88d4fde11610064578063b88d4fde14610577578063c87b56dd146105a0578063e985e9c5146105dd578063f2fde38b1461061a57610181565b8063a36f573b146104df578063a51cccf31461051c578063aa1524911461055957610181565b806370a08231146103e1578063715018a61461041e5780637a5caab3146104355780638da5cb5b1461046057806395d89b411461048b578063a22cb465146104b657610181565b8063209b5c481161013e57806342842e0e1161011857806342842e0e146103255780635dacf5f41461034e5780636352211e146103795780636e02007d146103b657610181565b8063209b5c48146102a857806323b872dd146102e55780633ccfd60b1461030e57610181565b806301ffc9a71461018657806306fdde03146101c3578063081812fc146101ee578063095ea7b31461022b5780630b21a83b146102545780631fe543e31461027f575b600080fd5b34801561019257600080fd5b506101ad60048036038101906101a89190612502565b610643565b6040516101ba919061254a565b60405180910390f35b3480156101cf57600080fd5b506101d8610725565b6040516101e591906125fe565b60405180910390f35b3480156101fa57600080fd5b5061021560048036038101906102109190612656565b6107b7565b60405161022291906126c4565b60405180910390f35b34801561023757600080fd5b50610252600480360381019061024d919061270b565b6107fd565b005b34801561026057600080fd5b50610269610915565b604051610276919061275a565b60405180910390f35b34801561028b57600080fd5b506102a660048036038101906102a191906128bd565b61091b565b005b3480156102b457600080fd5b506102cf60048036038101906102ca9190612656565b6109db565b6040516102dc91906125fe565b60405180910390f35b3480156102f157600080fd5b5061030c60048036038101906103079190612919565b610a82565b005b34801561031a57600080fd5b50610323610ae2565b005b34801561033157600080fd5b5061034c60048036038101906103479190612919565b610b96565b005b34801561035a57600080fd5b50610363610bb6565b6040516103709190612a17565b60405180910390f35b34801561038557600080fd5b506103a0600480360381019061039b9190612656565b610be1565b6040516103ad91906126c4565b60405180910390f35b3480156103c257600080fd5b506103cb610c93565b6040516103d8919061275a565b60405180910390f35b3480156103ed57600080fd5b5061040860048036038101906104039190612a32565b610c9d565b604051610415919061275a565b60405180910390f35b34801561042a57600080fd5b50610433610d55565b005b34801561044157600080fd5b5061044a610d69565b604051610457919061275a565b60405180910390f35b34801561046c57600080fd5b50610475610d91565b60405161048291906126c4565b60405180910390f35b34801561049757600080fd5b506104a0610dbb565b6040516104ad91906125fe565b60405180910390f35b3480156104c257600080fd5b506104dd60048036038101906104d89190612a8b565b610e4d565b005b3480156104eb57600080fd5b5061050660048036038101906105019190612656565b610e63565b60405161051391906126c4565b60405180910390f35b34801561052857600080fd5b50610543600480360381019061053e9190612656565b610e96565b6040516105509190612b42565b60405180910390f35b610561610f78565b60405161056e919061275a565b60405180910390f35b34801561058357600080fd5b5061059e60048036038101906105999190612c12565b611169565b005b3480156105ac57600080fd5b506105c760048036038101906105c29190612656565b6111cb565b6040516105d491906125fe565b60405180910390f35b3480156105e957600080fd5b5061060460048036038101906105ff9190612c95565b6112de565b604051610611919061254a565b60405180910390f35b34801561062657600080fd5b50610641600480360381019061063c9190612a32565b611372565b005b60007f80ac58cd000000000000000000000000000000000000000000000000000000007bffffffffffffffffffffffffffffffffffffffffffffffffffffffff1916827bffffffffffffffffffffffffffffffffffffffffffffffffffffffff1916148061070e57507f5b5e139f000000000000000000000000000000000000000000000000000000007bffffffffffffffffffffffffffffffffffffffffffffffffffffffff1916827bffffffffffffffffffffffffffffffffffffffffffffffffffffffff1916145b8061071e575061071d826113f6565b5b9050919050565b60606000805461073490612d04565b80601f016020809104026020016040519081016040528092919081815260200182805461076090612d04565b80156107ad5780601f10610782576101008083540402835291602001916107ad565b820191906000526020600020905b81548152906001019060200180831161079057829003601f168201915b5050505050905090565b60006107c282611460565b6004600083815260200190815260200160002060009054906101000a900473ffffffffffffffffffffffffffffffffffffffff169050919050565b600061080882610be1565b90508073ffffffffffffffffffffffffffffffffffffffff168373ffffffffffffffffffffffffffffffffffffffff161415610879576040517f08c379a000000000000000000000000000000000000000000000000000000000815260040161087090612da8565b60405180910390fd5b8073ffffffffffffffffffffffffffffffffffffffff166108986114ab565b73ffffffffffffffffffffffffffffffffffffffff1614806108c757506108c6816108c16114ab565b6112de565b5b610906576040517f08c379a00000000000000000000000000000000000000000000000000000000081526004016108fd90612e3a565b60405180910390fd5b61091083836114b3565b505050565b60095481565b7f000000000000000000000000000000000000000000000000000000000000000073ffffffffffffffffffffffffffffffffffffffff163373ffffffffffffffffffffffffffffffffffffffff16146109cd57337f00000000000000000000000000000000000000000000000000000000000000006040517f1cf993f40000000000000000000000000000000000000000000000000000000081526004016109c4929190612e5a565b60405180910390fd5b6109d7828261156c565b5050565b6060600a82600381106109f1576109f0612e83565b5b0180546109fd90612d04565b80601f0160208091040260200160405190810160405280929190818152602001828054610a2990612d04565b8015610a765780601f10610a4b57610100808354040283529160200191610a76565b820191906000526020600020905b815481529060010190602001808311610a5957829003601f168201915b50505050509050919050565b610a93610a8d6114ab565b82611700565b610ad2576040517f08c379a0000000000000000000000000000000000000000000000000000000008152600401610ac990612f24565b60405180910390fd5b610add838383611795565b505050565b610aea6119fc565b600047905060003373ffffffffffffffffffffffffffffffffffffffff1682604051610b1590612f75565b60006040518083038185875af1925050503d8060008114610b52576040519150601f19603f3d011682016040523d82523d6000602084013e610b57565b606091505b5050905080610b92576040517f61746da100000000000000000000000000000000000000000000000000000000815260040160405180910390fd5b5050565b610bb183838360405180602001604052806000815250611169565b505050565b610bbe6123d1565b6040518060600160405280600a8152602001601e81526020016064815250905090565b6000806002600084815260200190815260200160002060009054906101000a900473ffffffffffffffffffffffffffffffffffffffff169050600073ffffffffffffffffffffffffffffffffffffffff168173ffffffffffffffffffffffffffffffffffffffff161415610c8a576040517f08c379a0000000000000000000000000000000000000000000000000000000008152600401610c8190612fd6565b60405180910390fd5b80915050919050565b6000600954905090565b60008073ffffffffffffffffffffffffffffffffffffffff168273ffffffffffffffffffffffffffffffffffffffff161415610d0e576040517f08c379a0000000000000000000000000000000000000000000000000000000008152600401610d0590613068565b60405180910390fd5b600360008373ffffffffffffffffffffffffffffffffffffffff1673ffffffffffffffffffffffffffffffffffffffff168152602001908152602001600020549050919050565b610d5d6119fc565b610d676000611a7a565b565b60007f0000000000000000000000000000000000000000000000000000000000000000905090565b6000600760009054906101000a900473ffffffffffffffffffffffffffffffffffffffff16905090565b606060018054610dca90612d04565b80601f0160208091040260200160405190810160405280929190818152602001828054610df690612d04565b8015610e435780601f10610e1857610100808354040283529160200191610e43565b820191906000526020600020905b815481529060010190602001808311610e2657829003601f168201915b5050505050905090565b610e5f610e586114ab565b8383611b40565b5050565b60086020528060005260406000206000915054906101000a900473ffffffffffffffffffffffffffffffffffffffff1681565b600080600090506000610ea7610bb6565b905060005b6003811015610f4057828510158015610ee65750818160038110610ed357610ed2612e83565b5b602002015183610ee391906130b7565b85105b15610f0857806002811115610efe57610efd612acb565b5b9350505050610f73565b818160038110610f1b57610f1a612e83565b5b602002015183610f2b91906130b7565b92508080610f389061310d565b915050610eac565b506040517f12806c9d00000000000000000000000000000000000000000000000000000000815260040160405180910390fd5b919050565b60007f0000000000000000000000000000000000000000000000000000000000000000341015610fd4576040517f4e983d2500000000000000000000000000000000000000000000000000000000815260040160405180910390fd5b7f000000000000000000000000000000000000000000000000000000000000000073ffffffffffffffffffffffffffffffffffffffff16635d3b1d307f00000000000000000000000000000000000000000000000000000000000000007f000000000000000000000000000000000000000000000000000000000000000060037f000000000000000000000000000000000000000000000000000000000000000060016040518663ffffffff1660e01b81526004016110979594939291906131ce565b6020604051808303816000875af11580156110b6573d6000803e3d6000fd5b505050506040513d601f19601f820116820180604052508101906110da9190613236565b9050336008600083815260200190815260200160002060006101000a81548173ffffffffffffffffffffffffffffffffffffffff021916908373ffffffffffffffffffffffffffffffffffffffff160217905550807ff873236e6cc0ecc5be1a9a35c95ee5b8d1ac4cc7bfef0cc5060391d6cc98e26b3360405161115e91906126c4565b60405180910390a290565b61117a6111746114ab565b83611700565b6111b9576040517f08c379a00000000000000000000000000000000000000000000000000000000081526004016111b090612f24565b60405180910390fd5b6111c584848484611cad565b50505050565b60606111d682611460565b60006006600084815260200190815260200160002080546111f690612d04565b80601f016020809104026020016040519081016040528092919081815260200182805461122290612d04565b801561126f5780601f106112445761010080835404028352916020019161126f565b820191906000526020600020905b81548152906001019060200180831161125257829003601f168201915b505050505090506000611280611d09565b90506000815114156112965781925050506112d9565b6000825111156112cb5780826040516020016112b392919061329f565b604051602081830303815290604052925050506112d9565b6112d484611d20565b925050505b919050565b6000600560008473ffffffffffffffffffffffffffffffffffffffff1673ffffffffffffffffffffffffffffffffffffffff16815260200190815260200160002060008373ffffffffffffffffffffffffffffffffffffffff1673ffffffffffffffffffffffffffffffffffffffff16815260200190815260200160002060009054906101000a900460ff16905092915050565b61137a6119fc565b600073ffffffffffffffffffffffffffffffffffffffff168173ffffffffffffffffffffffffffffffffffffffff1614156113ea576040517f08c379a00000000000000000000000000000000000000000000000000000000081526004016113e190613335565b60405180910390fd5b6113f381611a7a565b50565b60007f01ffc9a7000000000000000000000000000000000000000000000000000000007bffffffffffffffffffffffffffffffffffffffffffffffffffffffff1916827bffffffffffffffffffffffffffffffffffffffffffffffffffffffff1916149050919050565b61146981611d88565b6114a8576040517f08c379a000000000000000000000000000000000000000000000000000000000815260040161149f90612fd6565b60405180910390fd5b50565b600033905090565b816004600083815260200190815260200160002060006101000a81548173ffffffffffffffffffffffffffffffffffffffff021916908373ffffffffffffffffffffffffffffffffffffffff160217905550808273ffffffffffffffffffffffffffffffffffffffff1661152683610be1565b73ffffffffffffffffffffffffffffffffffffffff167f8c5be1e5ebec7d5bd14f71427d1e84f3dd0314c0f7b2291e5b200ac8c7c3b92560405160405180910390a45050565b60006008600084815260200190815260200160002060009054906101000a900473ffffffffffffffffffffffffffffffffffffffff16905060006009549050600960008154809291906115be9061310d565b919050555060006064846000815181106115db576115da612e83565b5b60200260200101516115ed9190613384565b905060006115fa82610e96565b90506116068484611df4565b6116bf83600a83600281111561161f5761161e612acb565b5b600381106116305761162f612e83565b5b01805461163c90612d04565b80601f016020809104026020016040519081016040528092919081815260200182805461166890612d04565b80156116b55780601f1061168a576101008083540402835291602001916116b5565b820191906000526020600020905b81548152906001019060200180831161169857829003601f168201915b5050505050611e12565b7f8a269f26b688e110e9cbd887d163dab35cae678fa353a0292de532c0cac1ecdc81856040516116f09291906133b5565b60405180910390a1505050505050565b60008061170c83610be1565b90508073ffffffffffffffffffffffffffffffffffffffff168473ffffffffffffffffffffffffffffffffffffffff16148061174e575061174d81856112de565b5b8061178c57508373ffffffffffffffffffffffffffffffffffffffff16611774846107b7565b73ffffffffffffffffffffffffffffffffffffffff16145b91505092915050565b8273ffffffffffffffffffffffffffffffffffffffff166117b582610be1565b73ffffffffffffffffffffffffffffffffffffffff161461180b576040517f08c379a000000000000000000000000000000000000000000000000000000000815260040161180290613450565b60405180910390fd5b600073ffffffffffffffffffffffffffffffffffffffff168273ffffffffffffffffffffffffffffffffffffffff16141561187b576040517f08c379a0000000000000000000000000000000000000000000000000000000008152600401611872906134e2565b60405180910390fd5b611886838383611e86565b6118916000826114b3565b6001600360008573ffffffffffffffffffffffffffffffffffffffff1673ffffffffffffffffffffffffffffffffffffffff16815260200190815260200160002060008282546118e19190613502565b925050819055506001600360008473ffffffffffffffffffffffffffffffffffffffff1673ffffffffffffffffffffffffffffffffffffffff168152602001908152602001600020600082825461193891906130b7565b92505081905550816002600083815260200190815260200160002060006101000a81548173ffffffffffffffffffffffffffffffffffffffff021916908373ffffffffffffffffffffffffffffffffffffffff160217905550808273ffffffffffffffffffffffffffffffffffffffff168473ffffffffffffffffffffffffffffffffffffffff167fddf252ad1be2c89b69c2b068fc378daa952ba7f163c4a11628f55a4df523b3ef60405160405180910390a46119f7838383611e8b565b505050565b611a046114ab565b73ffffffffffffffffffffffffffffffffffffffff16611a22610d91565b73ffffffffffffffffffffffffffffffffffffffff1614611a78576040517f08c379a0000000000000000000000000000000000000000000000000000000008152600401611a6f90613582565b60405180910390fd5b565b6000600760009054906101000a900473ffffffffffffffffffffffffffffffffffffffff16905081600760006101000a81548173ffffffffffffffffffffffffffffffffffffffff021916908373ffffffffffffffffffffffffffffffffffffffff1602179055508173ffffffffffffffffffffffffffffffffffffffff168173ffffffffffffffffffffffffffffffffffffffff167f8be0079c531659141344cd1fd0a4f28419497f9722a3daafe3b4186f6b6457e060405160405180910390a35050565b8173ffffffffffffffffffffffffffffffffffffffff168373ffffffffffffffffffffffffffffffffffffffff161415611baf576040517f08c379a0000000000000000000000000000000000000000000000000000000008152600401611ba6906135ee565b60405180910390fd5b80600560008573ffffffffffffffffffffffffffffffffffffffff1673ffffffffffffffffffffffffffffffffffffffff16815260200190815260200160002060008473ffffffffffffffffffffffffffffffffffffffff1673ffffffffffffffffffffffffffffffffffffffff16815260200190815260200160002060006101000a81548160ff0219169083151502179055508173ffffffffffffffffffffffffffffffffffffffff168373ffffffffffffffffffffffffffffffffffffffff167f17307eab39ab6107e8899845ad3d59bd9653f200f220920489ca2b5937696c3183604051611ca0919061254a565b60405180910390a3505050565b611cb8848484611795565b611cc484848484611e90565b611d03576040517f08c379a0000000000000000000000000000000000000000000000000000000008152600401611cfa90613680565b60405180910390fd5b50505050565b606060405180602001604052806000815250905090565b6060611d2b82611460565b6000611d35611d09565b90506000815111611d555760405180602001604052806000815250611d80565b80611d5f84612018565b604051602001611d7092919061329f565b6040516020818303038152906040525b915050919050565b60008073ffffffffffffffffffffffffffffffffffffffff166002600084815260200190815260200160002060009054906101000a900473ffffffffffffffffffffffffffffffffffffffff1673ffffffffffffffffffffffffffffffffffffffff1614159050919050565b611e0e828260405180602001604052806000815250612179565b5050565b611e1b82611d88565b611e5a576040517f08c379a0000000000000000000000000000000000000000000000000000000008152600401611e5190613712565b60405180910390fd5b80600660008481526020019081526020016000209080519060200190611e819291906123f3565b505050565b505050565b505050565b6000611eb18473ffffffffffffffffffffffffffffffffffffffff166121d4565b1561200b578373ffffffffffffffffffffffffffffffffffffffff1663150b7a02611eda6114ab565b8786866040518563ffffffff1660e01b8152600401611efc9493929190613787565b6020604051808303816000875af1925050508015611f3857506040513d601f19601f82011682018060405250810190611f3591906137e8565b60015b611fbb573d8060008114611f68576040519150601f19603f3d011682016040523d82523d6000602084013e611f6d565b606091505b50600081511415611fb3576040517f08c379a0000000000000000000000000000000000000000000000000000000008152600401611faa90613680565b60405180910390fd5b805181602001fd5b63150b7a0260e01b7bffffffffffffffffffffffffffffffffffffffffffffffffffffffff1916817bffffffffffffffffffffffffffffffffffffffffffffffffffffffff191614915050612010565b600190505b949350505050565b60606000821415612060576040518060400160405280600181526020017f30000000000000000000000000000000000000000000000000000000000000008152509050612174565b600082905060005b6000821461209257808061207b9061310d565b915050600a8261208b9190613815565b9150612068565b60008167ffffffffffffffff8111156120ae576120ad61277a565b5b6040519080825280601f01601f1916602001820160405280156120e05781602001600182028036833780820191505090505b5090505b6000851461216d576001826120f99190613502565b9150600a856121089190613384565b603061211491906130b7565b60f81b81838151811061212a57612129612e83565b5b60200101907effffffffffffffffffffffffffffffffffffffffffffffffffffffffffffff1916908160001a905350600a856121669190613815565b94506120e4565b8093505050505b919050565b61218383836121f7565b6121906000848484611e90565b6121cf576040517f08c379a00000000000000000000000000000000000000000000000000000000081526004016121c690613680565b60405180910390fd5b505050565b6000808273ffffffffffffffffffffffffffffffffffffffff163b119050919050565b600073ffffffffffffffffffffffffffffffffffffffff168273ffffffffffffffffffffffffffffffffffffffff161415612267576040517f08c379a000000000000000000000000000000000000000000000000000000000815260040161225e90613892565b60405180910390fd5b61227081611d88565b156122b0576040517f08c379a00000000000000000000000000000000000000000000000000000000081526004016122a7906138fe565b60405180910390fd5b6122bc60008383611e86565b6001600360008473ffffffffffffffffffffffffffffffffffffffff1673ffffffffffffffffffffffffffffffffffffffff168152602001908152602001600020600082825461230c91906130b7565b92505081905550816002600083815260200190815260200160002060006101000a81548173ffffffffffffffffffffffffffffffffffffffff021916908373ffffffffffffffffffffffffffffffffffffffff160217905550808273ffffffffffffffffffffffffffffffffffffffff16600073ffffffffffffffffffffffffffffffffffffffff167fddf252ad1be2c89b69c2b068fc378daa952ba7f163c4a11628f55a4df523b3ef60405160405180910390a46123cd60008383611e8b565b5050565b6040518060600160405280600390602082028036833780820191505090505090565b8280546123ff90612d04565b90600052602060002090601f0160209004810192826124215760008555612468565b82601f1061243a57805160ff1916838001178555612468565b82800160010185558215612468579182015b8281111561246757825182559160200191906001019061244c565b5b5090506124759190612479565b5090565b5b8082111561249257600081600090555060010161247a565b5090565b6000604051905090565b600080fd5b600080fd5b60007fffffffff0000000000000000000000000000000000000000000000000000000082169050919050565b6124df816124aa565b81146124ea57600080fd5b50565b6000813590506124fc816124d6565b92915050565b600060208284031215612518576125176124a0565b5b6000612526848285016124ed565b91505092915050565b60008115159050919050565b6125448161252f565b82525050565b600060208201905061255f600083018461253b565b92915050565b600081519050919050565b600082825260208201905092915050565b60005b8381101561259f578082015181840152602081019050612584565b838111156125ae576000848401525b50505050565b6000601f19601f8301169050919050565b60006125d082612565565b6125da8185612570565b93506125ea818560208601612581565b6125f3816125b4565b840191505092915050565b6000602082019050818103600083015261261881846125c5565b905092915050565b6000819050919050565b61263381612620565b811461263e57600080fd5b50565b6000813590506126508161262a565b92915050565b60006020828403121561266c5761266b6124a0565b5b600061267a84828501612641565b91505092915050565b600073ffffffffffffffffffffffffffffffffffffffff82169050919050565b60006126ae82612683565b9050919050565b6126be816126a3565b82525050565b60006020820190506126d960008301846126b5565b92915050565b6126e8816126a3565b81146126f357600080fd5b50565b600081359050612705816126df565b92915050565b60008060408385031215612722576127216124a0565b5b6000612730858286016126f6565b925050602061274185828601612641565b9150509250929050565b61275481612620565b82525050565b600060208201905061276f600083018461274b565b92915050565b600080fd5b7f4e487b7100000000000000000000000000000000000000000000000000000000600052604160045260246000fd5b6127b2826125b4565b810181811067ffffffffffffffff821117156127d1576127d061277a565b5b80604052505050565b60006127e4612496565b90506127f082826127a9565b919050565b600067ffffffffffffffff8211156128105761280f61277a565b5b602082029050602081019050919050565b600080fd5b6000612839612834846127f5565b6127da565b9050808382526020820190506020840283018581111561285c5761285b612821565b5b835b8181101561288557806128718882612641565b84526020840193505060208101905061285e565b5050509392505050565b600082601f8301126128a4576128a3612775565b5b81356128b4848260208601612826565b91505092915050565b600080604083850312156128d4576128d36124a0565b5b60006128e285828601612641565b925050602083013567ffffffffffffffff811115612903576129026124a5565b5b61290f8582860161288f565b9150509250929050565b600080600060608486031215612932576129316124a0565b5b6000612940868287016126f6565b9350506020612951868287016126f6565b925050604061296286828701612641565b9150509250925092565b600060039050919050565b600081905092915050565b6000819050919050565b61299581612620565b82525050565b60006129a7838361298c565b60208301905092915050565b6000602082019050919050565b6129c98161296c565b6129d38184612977565b92506129de82612982565b8060005b83811015612a0f5781516129f6878261299b565b9650612a01836129b3565b9250506001810190506129e2565b505050505050565b6000606082019050612a2c60008301846129c0565b92915050565b600060208284031215612a4857612a476124a0565b5b6000612a56848285016126f6565b91505092915050565b612a688161252f565b8114612a7357600080fd5b50565b600081359050612a8581612a5f565b92915050565b60008060408385031215612aa257612aa16124a0565b5b6000612ab0858286016126f6565b9250506020612ac185828601612a76565b9150509250929050565b7f4e487b7100000000000000000000000000000000000000000000000000000000600052602160045260246000fd5b60038110612b0b57612b0a612acb565b5b50565b6000819050612b1c82612afa565b919050565b6000612b2c82612b0e565b9050919050565b612b3c81612b21565b82525050565b6000602082019050612b576000830184612b33565b92915050565b600080fd5b600067ffffffffffffffff821115612b7d57612b7c61277a565b5b612b86826125b4565b9050602081019050919050565b82818337600083830152505050565b6000612bb5612bb084612b62565b6127da565b905082815260208101848484011115612bd157612bd0612b5d565b5b612bdc848285612b93565b509392505050565b600082601f830112612bf957612bf8612775565b5b8135612c09848260208601612ba2565b91505092915050565b60008060008060808587031215612c2c57612c2b6124a0565b5b6000612c3a878288016126f6565b9450506020612c4b878288016126f6565b9350506040612c5c87828801612641565b925050606085013567ffffffffffffffff811115612c7d57612c7c6124a5565b5b612c8987828801612be4565b91505092959194509250565b60008060408385031215612cac57612cab6124a0565b5b6000612cba858286016126f6565b9250506020612ccb858286016126f6565b9150509250929050565b7f4e487b7100000000000000000000000000000000000000000000000000000000600052602260045260246000fd5b60006002820490506001821680612d1c57607f821691505b60208210811415612d3057612d2f612cd5565b5b50919050565b7f4552433732313a20617070726f76616c20746f2063757272656e74206f776e6560008201527f7200000000000000000000000000000000000000000000000000000000000000602082015250565b6000612d92602183612570565b9150612d9d82612d36565b604082019050919050565b60006020820190508181036000830152612dc181612d85565b9050919050565b7f4552433732313a20617070726f76652063616c6c6572206973206e6f7420746f60008201527f6b656e206f776e6572206e6f7220617070726f76656420666f7220616c6c0000602082015250565b6000612e24603e83612570565b9150612e2f82612dc8565b604082019050919050565b60006020820190508181036000830152612e5381612e17565b9050919050565b6000604082019050612e6f60008301856126b5565b612e7c60208301846126b5565b9392505050565b7f4e487b7100000000000000000000000000000000000000000000000000000000600052603260045260246000fd5b7f4552433732313a2063616c6c6572206973206e6f7420746f6b656e206f776e6560008201527f72206e6f7220617070726f766564000000000000000000000000000000000000602082015250565b6000612f0e602e83612570565b9150612f1982612eb2565b604082019050919050565b60006020820190508181036000830152612f3d81612f01565b9050919050565b600081905092915050565b50565b6000612f5f600083612f44565b9150612f6a82612f4f565b600082019050919050565b6000612f8082612f52565b9150819050919050565b7f4552433732313a20696e76616c696420746f6b656e2049440000000000000000600082015250565b6000612fc0601883612570565b9150612fcb82612f8a565b602082019050919050565b60006020820190508181036000830152612fef81612fb3565b9050919050565b7f4552433732313a2061646472657373207a65726f206973206e6f74206120766160008201527f6c6964206f776e65720000000000000000000000000000000000000000000000602082015250565b6000613052602983612570565b915061305d82612ff6565b604082019050919050565b6000602082019050818103600083015261308181613045565b9050919050565b7f4e487b7100000000000000000000000000000000000000000000000000000000600052601160045260246000fd5b60006130c282612620565b91506130cd83612620565b9250827fffffffffffffffffffffffffffffffffffffffffffffffffffffffffffffffff0382111561310257613101613088565b5b828201905092915050565b600061311882612620565b91507fffffffffffffffffffffffffffffffffffffffffffffffffffffffffffffffff82141561314b5761314a613088565b5b600182019050919050565b6000819050919050565b61316981613156565b82525050565b600067ffffffffffffffff82169050919050565b61318c8161316f565b82525050565b600061ffff82169050919050565b6131a981613192565b82525050565b600063ffffffff82169050919050565b6131c8816131af565b82525050565b600060a0820190506131e36000830188613160565b6131f06020830187613183565b6131fd60408301866131a0565b61320a60608301856131bf565b61321760808301846131bf565b9695505050505050565b6000815190506132308161262a565b92915050565b60006020828403121561324c5761324b6124a0565b5b600061325a84828501613221565b91505092915050565b600081905092915050565b600061327982612565565b6132838185613263565b9350613293818560208601612581565b80840191505092915050565b60006132ab828561326e565b91506132b7828461326e565b91508190509392505050565b7f4f776e61626c653a206e6577206f776e657220697320746865207a65726f206160008201527f6464726573730000000000000000000000000000000000000000000000000000602082015250565b600061331f602683612570565b915061332a826132c3565b604082019050919050565b6000602082019050818103600083015261334e81613312565b9050919050565b7f4e487b7100000000000000000000000000000000000000000000000000000000600052601260045260246000fd5b600061338f82612620565b915061339a83612620565b9250826133aa576133a9613355565b5b828206905092915050565b60006040820190506133ca6000830185612b33565b6133d760208301846126b5565b9392505050565b7f4552433732313a207472616e736665722066726f6d20696e636f72726563742060008201527f6f776e6572000000000000000000000000000000000000000000000000000000602082015250565b600061343a602583612570565b9150613445826133de565b604082019050919050565b600060208201905081810360008301526134698161342d565b9050919050565b7f4552433732313a207472616e7366657220746f20746865207a65726f2061646460008201527f7265737300000000000000000000000000000000000000000000000000000000602082015250565b60006134cc602483612570565b91506134d782613470565b604082019050919050565b600060208201905081810360008301526134fb816134bf565b9050919050565b600061350d82612620565b915061351883612620565b92508282101561352b5761352a613088565b5b828203905092915050565b7f4f776e61626c653a2063616c6c6572206973206e6f7420746865206f776e6572600082015250565b600061356c602083612570565b915061357782613536565b602082019050919050565b6000602082019050818103600083015261359b8161355f565b9050919050565b7f4552433732313a20617070726f766520746f2063616c6c657200000000000000600082015250565b60006135d8601983612570565b91506135e3826135a2565b602082019050919050565b60006020820190508181036000830152613607816135cb565b9050919050565b7f4552433732313a207472616e7366657220746f206e6f6e20455243373231526560008201527f63656976657220696d706c656d656e7465720000000000000000000000000000602082015250565b600061366a603283612570565b91506136758261360e565b604082019050919050565b600060208201905081810360008301526136998161365d565b9050919050565b7f45524337323155524953746f726167653a2055524920736574206f66206e6f6e60008201527f6578697374656e7420746f6b656e000000000000000000000000000000000000602082015250565b60006136fc602e83612570565b9150613707826136a0565b604082019050919050565b6000602082019050818103600083015261372b816136ef565b9050919050565b600081519050919050565b600082825260208201905092915050565b600061375982613732565b613763818561373d565b9350613773818560208601612581565b61377c816125b4565b840191505092915050565b600060808201905061379c60008301876126b5565b6137a960208301866126b5565b6137b6604083018561274b565b81810360608301526137c8818461374e565b905095945050505050565b6000815190506137e2816124d6565b92915050565b6000602082840312156137fe576137fd6124a0565b5b600061380c848285016137d3565b91505092915050565b600061382082612620565b915061382b83612620565b92508261383b5761383a613355565b5b828204905092915050565b7f4552433732313a206d696e7420746f20746865207a65726f2061646472657373600082015250565b600061387c602083612570565b915061388782613846565b602082019050919050565b600060208201905081810360008301526138ab8161386f565b9050919050565b7f4552433732313a20746f6b656e20616c7265616479206d696e74656400000000600082015250565b60006138e8601c83612570565b91506138f3826138b2565b602082019050919050565b60006020820190508181036000830152613917816138db565b905091905056fea26469706673582212205a0aa464c157598a5ecc4a49b8619dafb6112173756519e43f59792525209aa464736f6c634300080c0033",
  "linkReferences": {},
  "deployedLinkReferences": {}
}